:020000040800F2
:10000000F0E80020DD030008C59D0008C184000859
:10001000C19D0008152D0008A9020108000000007C
:100020000000000000000000000000001D030008A8
:10003000F7380008000000007903000815D6000812
:10004000F7030008F7030008F7030008F7030008A8
:10005000F7030008F7030008F9380008F703000861
:10006000F7030008033900080D390008F7030008FA
:10007000F7030008F7030008F7030008F703000878
:10008000F7030008F7030008F7030008F703000868
:10009000192D0008F7030008F703000817390008B6
:1000A000F7030008F7030008F7030008F703000848
:1000B000F7030008F7030008F7030008F703000838
:1000C000F7030008F7030008F7030008F703000828
:1000D000F7030008F5DD0008F70300080DDF00084E
:1000E000F7030008F7030008F7030008F703000808
:1000F000F7030008F7030008F7030008DD2E0008E7
:10010000F7030008F7030008F7030008F7030008E7
:10011000F7030008F7030008F7030008F7030008D7
:10012000F7030008592F0008692F0008F70300089B
:10013000F7030008F7030008F7030008F7030008B7
:10014000292D0008F7030008F7030008B1A10008F3
:10015000E9370008F9370008093800084DE00008C1
:10016000F7030008F7030008F7030008F703000887
:10017000F7030008F7030008F70300080000000079
:10018000F7030008F703000800F002F800F0B6F8E3
:100190000AA090E8000C82448344AAF10107DA45E2
:1001A00001D100F0ABF8AFF2090EBAE80F0013F07E
:1001B000010F18BFFB1A43F00103184708E10100C3
:1001C00028E101000A444FF0000C10F8013B13F045
:1001D000070408BF10F8014B1D1108BF10F8015BA0
:1001E000641E05D010F8016B641E01F8016BF9D193
:1001F00013F0080F1EBF10F8014BAD1C0C1B09D1EA
:100200006D1E58BF01F801CBFAD505E014F8016B5B
:1002100001F8016B6D1EF9D59142D6D370470000ED
:100220000023002400250026103A28BF78C1FBD8FF
:10023000520728BF30C148BF0B6070476E2900F0DD
:100240002984702900F06B8566291AF0E1856529FB
:100250001AF0DE8567291AF0DB8561291AF0DA8544
:1002600003681B0A28BF41F08001692900F0D6838A
:10027000642900F0D383752900F0D0836F2900F042
:10028000F884782900F03785E92900F09384E4297F
:1002900000F09084F52900F08D84EF2900F0F584BA
:1002A000F82900F036850368DB0928BF41F080019A
:1002B000632901F07182732901F07682E32901F04C
:1002C0008182F32901F08682002070471FB51AF061
:1002D000E7FC9DE8030000F0FDFA01F0D5FA040008
:1002E0000020002119F0E0F9401C6060002000218E
:1002F00019F0C4F9E0601FBD10B510BD01F096FA09
:100300001146FFF7E3FF15F0EFFB01F06FFB03B4BD
:10031000FFF7F2FF03BC01F0A7FB00002C4B1968AC
:100320000868B0E8F04F80F30988BFF36F8F4FF093
:10033000000080F311887047000000000848006842
:10034000006880F308884FF0000080F3148862B6DC
:1003500061B6BFF34F8FBFF36F8F00DF00BF00BFE9
:1003600008ED00E0DFF80C00016841F47001016065
:10037000704700BF88ED00E0EFF30980BFF36F8F97
:10038000134B1A681EF0100F08BF20ED108A20E9E9
:10039000F04F106009B44FF0500080F31188BFF3A4
:1003A0004F8FBFF36F8F18F023F94FF0000080F3E9
:1003B000118809BC19680868B0E8F04F1EF0100FEA
:1003C00008BFB0EC108A80F30988BFF36F8F7047C5
:1003D0001C030020EFF305807047000009488047A8
:1003E00009480047FEE7FEE7FEE7FEE7FEE7FEE717
:1003F000FEE7FEE7FEE7FEE704480549054A064B2F
:1004000070470000FDD6000889010008F0A8002010
:10041000F0E80020F0C80020F0C800209FED1A1A74
:10042000F5EE000A40EE010ABDEEE00AF5EEC00A64
:1004300010EE100AF1EE10FA38BF401E00EE100A5E
:100440001349F7EE001AB8EEC00A30EEC00ADFED2D
:100450000F0A20EE200AFCEEC00A10EE900AC0F34C
:10046000080000EE900A01EB8000F8EE600A90EDC3
:10047000011A70EE600A90ED000A71EEE01A21EEAA
:10048000800A00EE810A704783F9223E0000004492
:1004900018D70108DFED190AB5EEC00A60EE200A90
:1004A000BDEEE01A11EE100AF1EE10FA38BF401E50
:1004B00000EE100A1349F7EE001AB8EEC00A30EE4B
:1004C000C00ADFED0F0A60EE200ABCEEE00A10EE73
:1004D000100AC0F3080000EE100A01EB8000B8EE2D
:1004E000400A90ED011A70EEC00A90ED000A71EE1C
:1004F000E01A21EE800A00EE810A704783F9223E5D
:100500000000004418D7010870B5064600F0C6F98F
:10051000056806F10B0020F00704B4429CBF0020E0
:1005200070BD2B466A68BAB11068A04210D304F1BE
:10053000080188423CBF5068586007D351681019C1
:1005400041601168091B016058601460101D70BD86
:1005500013465268002AE7D12146284600F0A6F942
:100560000028DED170BD70B50446051F00F096F975
:100570000068002C14BF446870BD002C18BFAC424A
:100580003CBF20466468F8D301680A18AA4218BF25
:10059000456003D12A680546114401602868411965
:1005A000A1421CBF6C6070BD61686960216808442D
:1005B000286070BD53EA020C00F069802DE9F04B11
:1005C0004FF00006002B1FBFB3FA83F503FA05F4C2
:1005D00024FA05F65E4012BF1643B2FA82F502FA1B
:1005E00005F4C5F120051EBF22FA05FC44EA0C04FF
:1005F000203556EA044C4FEA144418BF641C4FF0EF
:1006000000084FF00009904271EB030C39D3002928
:1006100019BFB1FA81F701FA07F6B0FA80F700FACC
:1006200007F6C7F120071EBF20FA07FC46EA0C06B2
:100630002037B6FBF4FCA7EB0507103F07F01F0BB4
:10064000CBF120060CFA0BFB2CFA06F644BFB3469E
:100650000026202FA4BF5E464FF0000B5BEA060C7D
:1006600008BF4FF0010B19EB0B09ABFB027C48EB09
:100670000608C01B06FB02CC0BFB03CC71EB0C0184
:10068000C1E70B46024641464846BDE8F08B13B52C
:100690004FF000004FF00001AFF30080BDE81C40B8
:1006A000704700001CB50C46064B7B446946009021
:1006B000204600F008FA04460020694600F016FAC9
:1006C00020461CBD3F04000010B5431C02E010F89A
:1006D000011B71B18107FAD14FF0013202C88C1AA7
:1006E0008C4314EAC211F9D0C01A0A0603D0C01E06
:1006F00010BDC01A10BD0A0401D0801E10BD090231
:10070000FCD0401E10BD032A40F2308010F0030CD4
:1007100000F0158011F8013BBCF1020F624498BF54
:1007200011F801CB00F8013B38BF11F8013BA2F1F1
:10073000040298BF00F801CB38BF00F8013B11F06C
:10074000030300F02580083AC0F0088051F8043B0C
:10075000083A51F804CBA0E80810F5E7121D5CBF79
:1007600051F8043B40F8043BAFF30080D20724BFAC
:1007700011F8013B11F801CB48BF11F8012B24BF40
:1007800000F8013B00F801CB48BF00F8012B70478F
:1007900010B5203AC0F00B80B1E81850203AA0E81C
:1007A0001850B1E81850A0E81850BFF4F5AF5FEA50
:1007B000027C24BFB1E81850A0E8185044BF18C903
:1007C00018C0BDE810405FEA827C24BF51F8043BAA
:1007D00040F8043B08BF7047D20728BF31F8023BFE
:1007E00048BF11F8012B28BF20F8023B48BF00F892
:1007F000012B704702F0FF0343EA032242EA024260
:1008000000F002B84FF000020429C0F0128010F08E
:10081000030C00F01B80CCF1040CBCF1020F18BFDC
:1008200000F8012BA8BF20F8022BA1EB0C0100F06F
:100830000DB85FEAC17C24BF00F8012B00F8012B42
:1008400048BF00F8012B70474FF0000200B5134677
:1008500094469646203922BFA0E80C50A0E80C50E0
:10086000B1F12001BFF4F7AF090728BFA0E80C5091
:1008700048BF0CC05DF804EB890028BF40F8042B8A
:1008800008BF704748BF20F8022B11F0804F18BFF7
:1008900000F8012B70477047704770470048704759
:1008A00094A80020704770477047704738B50446D9
:1008B0000A4600206946AFF30080002808BF38BD13
:1008C00002460099204600F001FB012038BD0120BE
:1008D00000F0A4BFF8B5AFF30080054600200C4639
:1008E000102000BF0646A819A0420DD9324669461D
:1008F0000020AFF30080070008BF00F08FFF0098D2
:10090000A04218BF0546C419FFF7C8FF0560074697
:10091000F01D20F007004619284600F00AF8B442FE
:1009200008BFF8BDA21B31463868BDE8F84000F0AA
:10093000CDBA00210160C0E9011070471020704756
:1009400010B500F0BFFA006810BD10B5044600F005
:10095000B9FA046010BD70B5044685690068C10627
:1009600001D5302600E02026C00707D070BDD4E9AD
:10097000012130469047206A401C20626D1EF6D54A
:1009800070BD70B5044685690078C00707D170BD99
:10099000D4E9012120209047206A401C20626D1E6E
:1009A000F6D570BD09684A0501D540B27047C90542
:1009B000FCD500B2704709684A0501D5C0B270473E
:1009C000C905FCD580B2704770B50C460546012AB2
:1009D00005D02878800600D5EA69002302E00123CB
:1009E00005E05B1C934202D2E05C0028F9D1A869C3
:1009F000E618C01AA861286A184428622846FFF73A
:100A0000AAFF04E0D5E9012114F8010B9047B44294
:100A1000F8D32846FFF7B5FF70BD00002DE9F0417F
:100A20000646002410687529314616A510D0FFF738
:100A3000B9FF002802DA404213A507E031688A07AF
:100A400001D512A502E0490704D511A5012401E052
:100A5000FFF7B1FF00210A2206F1240709E0B0FBED
:100A6000F2FCB0FBF2F302FB1C0030307854184665
:100A7000491C0028F3D123462A463046BDE8F04100
:100A800000F09CBA000000002D0000002B000000C8
:100A90002000000011680268006A530501D5087043
:100AA0000AE0D30501D5088006E0130603D5C21776
:100AB000C1E9000200E008600120704701694A1C9A
:100AC00002610878704700B58FB0CDE9013100218F
:100AD000059105497944CDE903101146684600F0B7
:100AE00029F90FB000BD0000E5FFFFFF0A6802F81A
:100AF000010B0A60704700002DE9FF5F15468A462A
:100B00000446DFF8AC80F8440027D8E900103E46E0
:100B1000CDE9001010E03AF816106A4602A800F07D
:100B20005DFE411C07D02178890603D5E26939189A
:100B300091420DD80744761C2078800602D5E069E2
:100B4000B84205DDAE42E6DB3AF816000028E2D1F5
:100B5000A069C01BA0612046FFF7FDFED8E9001088
:100B6000CDE90010002017E03AF818106A4602A8F4
:100B700000F034FEB0F1FF3F81460BD000250DF1AF
:100B8000080B05E0D4E901211BF8050090476D1C16
:100B90004D45F7D308F10100B0428046E4DB206AFE
:100BA000384420622046FFF7ECFEBDE8FF9F0000BE
:100BB00012D401002DE9F0418046D21D22F0070237
:100BC0000025D2E90002F52915A614D0011E72F104
:100BD000000106DA0023D0EB030063EB020211A64A
:100BE00008E0D8F800108B0701D50FA602E04907EE
:100BF00001D50EA601251146002408F1240704E0C2
:100C000000F07EF930323A55641C50EA0102F7D107
:100C10002B46324621464046BDE8F04100F0CEB9B1
:100C2000000000002D0000002B000000200000004C
:100C300030B4002100F1240408E002F00705D208D6
:100C4000303542EA4372DB086554491C52EA030519
:100C5000F3D10468002310A2250707D5A40600D409
:100C600021B1C46901230DA2641EC46130BC00F02F
:100C7000A5B910B5044621461068FFF79CFE024650
:100C80002046BDE810400023D2E7D21D22F0070124
:100C9000D1E90023CCE70000000000003000000094
:100CA000F0B40D460188090502D5214C7C4402E0D0
:100CB0001F4C7C440E34002100F1240608E002F0B1
:100CC0000F071209E75D42EA03721B097754491CBA
:100CD00052EA0307F3D102780023120704D5702DDE
:100CE00006D009B1022311342246F0BC00F066B9E7
:100CF00001231034F8E770B504460D46214610680C
:100D0000FFF759FE024629462046BDE87040002301
:100D1000C6E7D21D22F00703D3E90023C0E703682A
:100D2000126843F0200303600823C3610023B7E780
:100D300074D201002DE9F05F894604464FF0000AA5
:100D4000DFF874B1FB44C0F820A02046E168884772
:100D5000002874D0252806D0D4E901219047206AC4
:100D6000401C2062F1E700265F462046E168884784
:100D70002028054607DB312D05D2781910F8200C04
:100D800008B10643F1E7B00701D526F00406C4F820
:100D90001CA00027C4F818A02A2D09D0284610F05E
:100DA000B0F938B304EB8708303DC8F8185019E0A3
:100DB00059F8041B204604EB87029161E1688847DB
:100DC000012F054618D1E069002820DA26F0200618
:100DD0001DE0D8F8180000EB800005EB400030382B
:100DE000C8F818002046E1688847054610F089F9E0
:100DF0000028EED1012F0AD02E2D08D12046E1681F
:100E000088477F1C0546022F46F02006C4DBA069F8
:100E1000002803DA404246F00106A061F00701D045
:100E200026F010066C2D0BD0682D09D04C2D39D032
:100E30006A2D35D0742D35D07A2D33D016E038E0B8
:100E4000E1682F4620468847B842054609D16C2FF5
:100E500026D04FF48060E168064320468847054667
:100E600004E06C2F1AD04FF4807006430DB3A5F147
:100E70004100192802D8203546F400664A46294622
:100E8000204626604E46FFF7D9F980B101280BD0E5
:100E9000F61D26F0070000F1080956E74020E4E7B8
:100EA0008020D8E70020D6E706F104094DE7284660
:100EB00052E7206ABDE8F09F04D201000048704765
:100EC0008CA80020004870478CA80020034640688A
:100ED0008C46002818BF88423CBF03464068F8D3C0
:100EE00018681844884207D00CF1030020F007006E
:100EF000001D411A521A0146081D0A60FFF733BB54
:100F000030B5B0F10A024FEA900E71F100034EEADB
:100F1000817EB0EB0E0061EB91014FEA101E4EEAAC
:100F2000017E10EB0E0041EB11114FEA102E4EEA3C
:100F3000016E10EB0E0041EB11214FEA104E4EEA0C
:100F4000014E10EB0E0041EB1141401841F1000140
:100F50004FEAD00040EA41704FEAD10110EB800522
:100F60004FEA810444EA907444EB01046D1944EBA8
:100F70000404521BA3414FF0000348BF0A3200D5BE
:100F800030BD401C41F1000130BD00001FB584B0F0
:100F900000200A9C06AB04AA02A90094AFF30080CB
:100FA00018B1DDE9020108B010BD0348204000F08F
:100FB0002BFD00200146F6E70000207C2DE9F047DC
:100FC0000D4699469246044600F1240801688806B9
:100FD00004D5E06921F01001216000E00120A84261
:100FE00001DD471B00E00027A1697A1902EB090027
:100FF000081AA0612078C00602D42046FFF7ABFC97
:10100000002608E0D4E901211AF806009047206A7A
:10101000401C761C20624E45F4DB2078C0060AD5C1
:101020002046FFF798FC06E0D4E9012130209047E4
:10103000206A401C2062381EA7F10107F4DC07E09B
:10104000D4E9012118F805009047206A401C20626D
:10105000281EA5F10105F3DC2046FFF792FC20785D
:10106000000602D50220BDE8F0870120FBE77047AB
:101070002DE9FF4F0C461E464FF0FF378BB0D2E9EB
:101080000001DDF860800A908A46C1F30A5505B96F
:101090003D460021084619F0ABFEBAF1000F00F4FE
:1010A000400005DA00EB80004FF4400101EA5000F7
:1010B0004FEA9059B9F1010F00DDB9460A9850EA9C
:1010C0004A000ED044F61050A5F2FF3545432F14C8
:1010D000B8F1000F1ED07542291E1EDDC9F10002B5
:1010E0001CE0B8F1010F4FF0000001D0302103E007
:1010F000F24305E02154401CB042FBDB30460022A5
:10110000002121540B99C1F80880C1E900200FB0DB
:10111000BDE8F08FBD1B6D1CDEE74A4600DA694270
:1011200006A800F0F5FB06AB93E8070003AB83E8E5
:10113000070050460A9900F054FD8DE80700A0F51D
:1011400000501F3800900398002D09DD42F21F0166
:101150004A46084403A90390684600F0B3FF08E03C
:10116000A0F500504A461F3803A90390684600F0D6
:10117000BDFF8DE807000004000C03D04FF0FF30E6
:10118000410800E01046B8F1000F03D000220092A1
:1011900015461EE0751E05D4FFF7B2FE30326255CB
:1011A0006D1EF9D5B3460122084302D000227F1CF0
:1011B00004E02078302801D100227F1E002A099700
:1011C00086D01DE0112D07DAFFF79AFE3032625506
:1011D0006D1C50EA0102F5D1084302D00098C8B155
:1011E0000EE00021681E05E0235C625C635422541B
:1011F000401E491C8142F7DBAB46A81B401E0990EC
:10120000002004F80B000B98099AC0F80880C0E988
:10121000002B7CE711264FF0000859E72DE9F04F2D
:1012200088460446D21D22F0070191B0D1E90001A1
:10123000CDE90A010FF03AF802460B98C00F01D031
:101240002D2007E02068810701D52B2002E0202116
:1012500001EAC000032A099001D0072A05DB0346F2
:101260004146204600F014FB0BE12078800601D5B2
:10127000E06900E00620B8F1650F814606D0B8F1BC
:10128000660F18D0B8F1670F70D131E00020B9F1C6
:10129000110F009001DB112301E009F101030AAAFB
:1012A00001A90CA8FFF7E4FEDDE90C70002609F1A6
:1012B0000105834647E001204B4600904FF0004770
:1012C0000AAA01A90CA8FFF7D3FEDDE90DB00C991D
:1012D0005D46002610B909F101000D18B9EB0500B3
:1012E00003D4C0F1FF3609F10105A5EB09002BE09D
:1012F000B9F1010F01DA4FF001090020B9F1110F26
:101300000090484601DD112300E003460AAA01A926
:101310000CA8FFF7ADFEDDE90C704D4600268346B4
:10132000207800070AD4AB4500DA5D4601A8012DFC
:1013300004DD411911F8011C302907D04F4502DAAC
:1013400017F1040F04DA012082460FE06D1EEEE76C
:10135000002F02DCED1B3E4403E0781CA84200DDB8
:101360007D1CB81B00F1010A4FF0004720780007F0
:1013700003D4AA4501DB4FF0FF3A0021B7F1004F3B
:101380000DF143088DF8431024D002202B23002FA9
:1013900001DA7F422D230A21021EA0F1010000DCA8
:1013A0005FB197FBF1FC97FBF1F201FB1C7C174648
:1013B0000CF1300C08F801CDEEE7A8F10100037044
:1013C0002188090501D5452100E06521A0F101082A
:1013D00000F8011C09980FA9A1EB0807FF1D00B137
:1013E0000120411901EBEA70A1693844081A401E36
:1013F000A0612078C00602D42046FFF7ACFA099815
:1014000028B1D4E901219047206A401C206220784D
:10141000C00622D52046FFF79EFA1EE0002E04DB10
:10142000B34502DD01A8805D00E03020D4E9012150
:101430009047206A401C2062761CAAF101005FEAF6
:10144000000A0AD100F020FAC0680168405CD4E9C3
:1014500001219047206A401C2062281EA5F1010549
:10146000DCDC07E0D4E9012118F8010B9047206A81
:10147000401C2062381EA7F10107F3DC2046FFF76D
:1014800080FA032011B043E62DE9F04F04460D46E3
:10149000D21D22F0070089B0D0E9009748463946AE
:1014A0000EF004FF0246F80F01D02D2307E020685C
:1014B000810701D52B2302E0202101EAC0038DF82A
:1014C00020300BB1012000E00020032A824601D029
:1014D000072A04DB2946204600F0DAF93FE12078AC
:1014E000800601D40D2500E0E569C7F30A560D2DED
:1014F00049DA00214FEA175B084619F079FC002F02
:1015000000F4400007DA00EB80004FF4400100EBEC
:10151000D07001EA60008115012901DD4FF0FF3133
:1015200000224FEA850CBCF1180F06D31346ACF12C
:1015300018004FF08052C24003E04FF4801323FAAA
:101540000CF30CF10C0CBCF1200F04D3ACF1200C0B
:1015500009FA0CF001E007FA0CF000294FF00048FE
:1015600001DD18B90FE00ED140450CD319EB02098B
:101570005F4121B9404502D19F4329EA0209BBEBF3
:10158000175F00D0761C2088000502D57B48784480
:1015900002E07A487844193808AA302302F80A3061
:1015A000037C0AF10101002E0AF1020A53546A4633
:1015B00002DC4FF0300101E04FF031014FF0010843
:1015C0008DF8001002D0A6F2FF3603E059EA470179
:1015D00000D06B4E002D02DC2178090704D54FF0B6
:1015E00002082E218DF80110C44600210BE0C7F33C
:1015F00003433F01C35C491C6D1E02F808300529F6
:1016000008F1010801DA002DF1DC00210CE000EB0B
:101610001973491C1B786D1E082902F808304FEA1F
:10162000091908F1010801DA002DF0DC21688B06A8
:1016300002D516E0A8F10108E04505DD02EB08033C
:1016400013F8013C302BF5D0B8F1000F09DD02EBA7
:10165000080313F8013C2E2B03D1090701D4A8F18C
:101660000108002D05DD3E2102F808106D1E08F16D
:101670000108407C002E02F8080008F1010804DA95
:101680002D20764202F8080002E02B2002F8080024
:101690000A214FF47A70864208F101080BDB96FBB1
:1016A000F0F3303302F8083096FBF0F308F101084C
:1016B00000FB136601E0642E0CDB642096FBF0F364
:1016C000303302F8083096FBF0F308F1010800FB14
:1016D000136601E00A2E06DB96FBF1F0303002F8CB
:1016E000080008F1010896FBF1F001FB10603030B2
:1016F00002F80800A16908F1010808EB050202EBF5
:101700000A00081AA0612078C00602D42046FFF71C
:1017100022F9216A08AE01EB0A00206204E0D4E954
:10172000012116F8010B9047BAF1010AF7D220788F
:10173000C00602D52046FFF70EF96E4609E016F8FE
:10174000010B3E280FD0D4E901219047206A401CAC
:101750002062B8F10108F2D22046FFF712F909B071
:101760000320BDE8F08F206A2844206203E0D4E91A
:101770000121302090476D1EEBD3F8E701CB01002B
:1017800002FCFFFF10B5436913B1AFF3008001E025
:10179000FFF71AF9012010BD127800F124010A7038
:1017A00000224A700122EDE711684FF0FF32E9E7AD
:1017B00010B5436913B1AFF3008001E0FFF79CF966
:1017C000012010BD128800F1240182840022C2840D
:1017D0000122EDE711684FF0FF32E9E770B51646D8
:1017E0000C46054600F048F8036893F8010101280B
:1017F00006D0FF2C0FD8185D68B101202C7070BD89
:10180000D3F807013246214603F207130344284662
:10181000BDE8704018474FF0FF3070BD10B500F0C4
:10182000FBF8BDE8104000F0EAB870477546FFF7D6
:1018300045FBAE4605006946534620F00700854645
:1018400018B020B5FEF7D8FDBDE820404FF00006E7
:101850004FF000074FF000084FF0000B21F0070198
:10186000AC46ACE8C009ACE8C009ACE8C009ACE8DB
:10187000C0098D467047000010B500F005F8001D46
:1018800010BD00BF257E010000487047ACA80020B5
:101890002DE9F0411F46044603260168072A01F49A
:1018A000006004DB08B116A505E016A503E008B149
:1018B00015A500E015A521F010002060A069C01E4C
:1018C000A0610FB1401EA0612046FFF744F84FB160
:1018D000D4E9012138469047206A401C2062C01C90
:1018E000206206E0206AFAE7D4E9012115F8010B2D
:1018F0009047761EF8D22046FFF743F8BDE8F08106
:101900004E414E006E616E00494E4600696E6600A3
:101910002DE9F047814616468AB0334878440DC811
:101920008DE80D0030487844801C03AC0DC884E875
:101930000D0041F69B300844372190FBF1F290FBFB
:10194000F1F5A5F1800501FB12041B3C02D56442B0
:10195000012000E00020DFF890A080460027FA4434
:10196000AAF1BE0A0DE0E00709D03246684607EB4F
:1019700047010AEB810100F0B9FB8DE80700641014
:101980007F1C002CEFD1184F7F44AC3F18E0E807D4
:1019900014D007EB04100DF1180A90E80E008AE845
:1019A0000E00C068F04201D198190890324606A98D
:1019B00003A800F09BFB03AB83E807006D10641CD9
:1019C000002DE4D132466946B8F1000F03A802D0D9
:1019D00000F078FB01E000F089FBC9E90001C9F8DB
:1019E00008200AB0BDE8F08704C8010010B504461D
:1019F000AFF300802046BDE81040FEF788BC002809
:101A000001D000F031B8704710B500F04DF8BDE8D6
:101A10001040FFF7F4BF000010B5012805D00021E9
:101A200003A000F027F8012010BD09A1F8E700008D
:101A300053494752544D454D3A204F7574206F66B7
:101A40002068656170206D656D6F7279000000001F
:101A50003A2048656170206D656D6F727920636F03
:101A6000727275707465640001491820ABBEFEE7A0
:101A70002600020070B505460C460A2000E06D1CE9
:101A800000F0A8F835B128780028F8D102E0641CED
:101A900000F0A0F814B120780028F8D1BDE870401B
:101AA0000A2000F097B8000010B5022803D04101C9
:101AB00003D50DA112E0002010BD010101D50FA139
:101AC0000CE0C10001D511A108E0810001D512A1EF
:101AD00004E0400001D513A100E0002115A0FFF7AC
:101AE000C9FF012010BD0000496E76616C69642059
:101AF0004F7065726174696F6E00000044697669A9
:101B00006465204279205A65726F00004F766572D5
:101B1000666C6F7700000000556E646572666C6FCE
:101B200077000000496E65786163742052657375B3
:101B30006C7400005349474650453A20417269741D
:101B4000686D6574696320657863657074696F6E2C
:101B50003A2000004FF0013C50F8042B51F8043BB0
:101B60009A4221D1A2EB0C03934313EACC1317D171
:101B700050F8042B51F8043B9A4215D1A2EB0C0308
:101B8000934313EACC130BD150F8042B51F8043BC8
:101B90009A4209D1A2EB0C03934313EACC13DBD096
:101BA0004FF00000704700BFD01A01BAB1FA81F1BE
:101BB00001F0180122FA01F0CB40C1F12001DBB2A3
:101BC000C0B2C01A2CFA01F3D11A914311EAC31121
:101BD000E6D1704708B569468DF800000320ABBE1A
:101BE00008BD5FEA400C08BF91F0000F4FEA8C235C
:101BF0004FEAC12243EA51514FEA1C5018BF00F589
:101C0000F0404FEA300018BF41F000415FEA6C5CE1
:101C100000F02980BCF1FF3F08BF40F080407047D2
:101C2000130C06BF12044FF0100C4FF0000C130EF3
:101C300004BF12020CF1080C130F04BF12010CF1C7
:101C4000040C930F04BF92000CF1020CD30F04BFDD
:101C500052000CF1010C11464FF00002A0F11F00E0
:101C6000A0EB0C00704711F0004F08BF704731F037
:101C700000413FF4D5AF0B0C06BF09044FF0100C28
:101C80004FF0000C0B0E04BF09020CF1080C0B0FF7
:101C900004BF09010CF1040C8B0F04BF89000CF187
:101CA000020CCB0F04BF49000CF1010CCCF1200356
:101CB000A0EB0C0022FA03F302FA0CF241EA030152
:101CC00000F10100704720F07F4C80EA030023F010
:101CD0007F47ACEB070303F57C5300F0004003F1B2
:101CE000FF032DE980494FEA154B09B44FEA14432D
:101CF00025EA0B4E24EA03480FF2042606EB1327CD
:101D000049083E785FEA320203FB0667C7F5000721
:101D100007FB06F64FEA54374FEAD64606F10206AD
:101D200007FB066CCCF1005C4FEA1C472CEA074C21
:101D300007FB06F40CFB06F504EB15464FEA961676
:101D400034BF00204FF000404FEAD13706FB07FCBC
:101D50004FEA1C4C0CFB0BF7D21B03FB0CF761EB9F
:101D600007010CFB0EF7B0EB074072EB17420CFBC0
:101D700008F734BFA2EB0742B2EB074261EB174111
:101D80004FEA0C444FEA910706FB07FC4FEA1C4C54
:101D90000CFB0BF7B0EBC74072EB573203FB0CF7B1
:101DA00034BFA2EBC742B2EBC74261EB57310CFB29
:101DB0000EF7B0EBC70072EB57720CFB08F734BF9D
:101DC000A2EBC702B2EBC70261EB5771039F4FEA68
:101DD000816141EA921104EBCC044FEAD1374FEA1A
:101DE000826206FB07FC42EA90124FEA80604FEAEB
:101DF0001C4C0CFB0BF7D21B03FB0CF761EB070130
:101E00000CFB0EF7B0EB074072EB17420CFB08F728
:101E100034BFA2EB0742B2EB074261EB17414FEA36
:101E20008C554FEA910704EB9C2406FB07FC4FEA14
:101E30001C4C0CFB0BF7B0EBC74072EB573203FBAB
:101E40000CF734BFA2EBC742B2EBC74261EB57318C
:101E50000CFB0EF7B0EBC70072EB57720CFB08F7E8
:101E600034BFA2EBC702B2EBC70261EB577115EBAF
:101E70004C254FEA816141EA92114FEA82624FEAB2
:101E8000D13742EA901206FB07FC44F100044FEA06
:101E900080604FEA1C4C0CFB0BF7D21B03FB0CF7CA
:101EA00061EB07010CFB0EF7B0EB074072EB17423A
:101EB0000CFB08F734BFA2EB0742B2EB074261EB21
:101EC000174115EB1C154FEA813141EA92414FEA67
:101ED000823242EA90424FEA80304FEA0C7644F177
:101EE000000448EA03434EEA0B484FF0000EB2EB01
:101EF000080C71EB030724BF624639464EEB0E0E09
:101F00004FF0000B0018524149414BEB0B0BB2EB69
:101F1000080C71EB03077BF1000B24BF62463946C6
:101F20004EEB0E0E4FF0000B0018524149414BEBA7
:101F30000B0BB2EB080C71EB03077BF1000B24BF1A
:101F4000624639464EEB0E0E51EA020718BF46F0C4
:101F5000010616EB0E7655F1000254F1000103D58F
:101F6000BDE88901BDE80088BDE88901BDE80048F9
:101F7000B619524141EB0101A3F101037047808082
:101F80007F7E7D7C7B7A79787776767574737271D3
:101F900071706F6E6E6D6C6C6B6A6A69686867668B
:101FA00066656464636362616160605F5F5E5E5D1D
:101FB0005D5C5C5B5B5A5A59595858575756565591
:101FC00055555454535352525251515050504F4FF3
:101FD0004F4E4E4D4D4D4C4C4C4B4B4B4A4A4A4943
:101FE0004949484848474747474646464545454486
:101FF0004444444343434342424242414141002B13
:1020000026D4770021D01CB54FEA370703B44FF030
:1020100010004FF0100118F0EBFE0FBCBDE81040AF
:102020000BF1010BBBF1010F08BF5FEA170722BFDD
:1020300012F1010211F101014FF0004143F10003DF
:1020400000F0004043EA00007047F9D35708DAE790
:1020500046EA064613F1400F4FEA16461FDD13F11C
:10206000200FDFBF16430A46002120335B42C8D051
:10207000C3F1200746EA064602FA07F74FEA16467A
:1020800046EA0706C3F1200722FA03F201FA07F72E
:1020900021FA03F14FF0000342EA0702B1E746EAF2
:1020A000020646EA06464FEA164646EA0106BCBF65
:1020B00046EA0646360C4FF000034FF000024FF0A0
:1020C00000019EE72DE9C048934630B491E83800FE
:1020D00007C831EA400C48BF34EA430C03D5FFF788
:1020E000F2FDFFF78CFFF0BCBDE800882DE9C04889
:1020F000934630B491E8380007C810F0804F08BF0D
:1021000013F0804F03D100F005F8FFF778FFF0BC23
:10211000BDE8008820F07F4780EA030023F07F4C71
:1021200007EB0C03A3F57C5300F00040A3F1FE0382
:1021300092F0000F00F0B38095F0000F00F0778070
:102140002DE901494FEA11404FEA144621EA0048BF
:1021500000FB06FC24EA064708FB06F607FB08F826
:1021600000FB07F718EB06484CEB164C4FEA124BF6
:1021700018EB07484FEA15464CEB174022EA0B4E86
:102180000BFB06FC25EA06470EFB06F607FB0EFED8
:102190000BFB07F71EEB064E4CEB164C4FF0000600
:1021A0001EEB074E4CEB174B18EB0B0840F10000F1
:1021B00018EB0E0B58EB000840F100008F1A4FF09F
:1021C00000013CBFC943661B14BFB5EB040C0021E2
:1021D0003CBFC943F61B4FEA17444EEA8E0E27EA6E
:1021E00004454FEA1C4704FB07622CEA074C05FB39
:1021F00007F70CFB05F604FB0CFC16EB074642EB5D
:10220000174216EB0C4642EB1C421BEB060658EB42
:102210000202414146EA9E0601D5BDE80189B61990
:10222000524141EB0101A3F10103BDE801894FEAED
:1022300014454FEA114724EA054621EA074C05FBFD
:1022400007F406FB07F70CFB06F105FB0CFC11EB92
:10225000074144EB17444FEA124711EB0C4144EBA2
:102260001C4422EA074C05FB07F206FB07F70CFBB0
:1022700006F605FB0CFC16EB074642EB174216EB85
:102280000C4642EB1C456A1854F1000148BF7047E8
:10229000B619524141EB0101A3F10103704795F0DA
:1022A000000F37D04FEA11424FEA144721EA0246A5
:1022B00024EA074C02FB07F106FB07F70CFB06F4C8
:1022C00002FB0CFC14EB074441EB17414FEA1547A6
:1022D00014EB0C4441EB1C4125EA074C02FB07F5CB
:1022E00006FB07F70CFB06F602FB0CFC16EB074699
:1022F00045EB174516EB0C4645EB1C42121951F104
:10230000000148BF7047B619524141EB0101A3F1EA
:10231000010370474FEA14454FEA114724EA054686
:1023200021EA074C05FB07F106FB07F70CFB06F259
:102330004FF0000605FB0CFC12EB074241EB174186
:1023400012EB0C4251EB1C4148BF7047921841EB15
:102350000101A3F10103704755494A6822F4403254
:102360004A604A6843681A434A600268526822F425
:10237000807203685A6002685368026943EA022265
:1023800003685A600268526822F0407203685A601B
:102390000268526883681A4303685A600268926848
:1023A00022F4006203689A6002689268C3681A4364
:1023B00003689A603F4B826A9A4218D0026892681A
:1023C00022F0706203689A6002689268836A1A4316
:1023D00003689A600268926822F0405203689A602B
:1023E00002689268C36A1A4303689A600BE0026845
:1023F000926822F0706203689A600268926822F024
:10240000405203689A600268926822F002020368F0
:102410009A6002689368027E43EA420203689A6007
:102420002022125CA2B10268526842F40062036882
:102430005A600268526822F4604203685A60026877
:102440005368426A521E43EA423203685A6005E00A
:102450000268526822F4006203685A600268D26A15
:1024600022F470020368DA620268D36A828B521E19
:1024700043EA02520368DA620268926822F4007248
:1024800003689A600268936890F8302043EA422219
:1024900003689A600268926822F4806203689A6016
:1024A00002689368426943EA822203689A6070472F
:1024B000002301400100000F10B52DED028BB0EE9E
:1024C000408AB0EE480A0DF03DFFBDEC028B10BD16
:1024D00010B52DED028BB0EE408AF0EE608AF0EE82
:1024E000680AB0EE480A0DF0C3FFBDEC028B10BDC8
:1024F00010B52DED028BB0EE408AB0EE480AFDF724
:102500008DFFBDEC028B10BDF0EE400AF5EEC00A67
:10251000F1EE10FA02DDB0EE600A7047B1EE600A2B
:10252000FBE7000018B19FED020A80ED000A70473A
:102530000000000018B1B3EE060A80ED000A7047F3
:1025400070B52DED0C8B84B006460C4615469FEDFC
:10255000990AF0EE408A9FED970AB0EE409A9FEDFF
:10256000950AF0EE40BA9FED930AF0EE409A9FED87
:10257000910AB0EE40AA0EB104B11DB904B0BDEC91
:102580000C8B70BD8C48FFF7CDFF8C48FFF7D2FF56
:102590008A48D0ED000A9FED8A1A60EE810AB0EEFB
:1025A000600A00F02DF9F0EE408A28EEA80AF0EE5D
:1025B000408A8248D0ED000AB0EE001A60EE810A2F
:1025C0009FED7F1A60EE810AB0EE600A00F018F904
:1025D000B0EE409A29EE090AB0EE409ADFED790A92
:1025E000B7EE000A00EEA80ADFED770A00EEC90A8E
:1025F000DFED760A20EE200A754880ED000A6E486D
:1026000090ED000ADFED730A80EE201AB7EE000AA3
:1026100031EE000A20EE000A6D48D0ED000A80EE8F
:10262000801A6D4880ED001A94ED000AB5EEC00ADC
:10263000F1EE10FA0DD194ED010AB5EEC00AF1EEFB
:1026400010FA06D194ED020AB5EEC00AF1EE10FAC6
:1026500046D09FED580AB0EE408A002001900290CB
:102660000390D4ED000A60EEA00A94ED011AD4EDB7
:10267000011A41EE210A94ED021AD4ED021A41EE3C
:10268000210AB0EE600A00F0A9F8B0EE408A94ED9D
:10269000000A20EE080A8DED010A94ED010A20EEF1
:1026A000080A8DED020A94ED020A20EE080A8DED6B
:1026B000030ADDED010AF1EE600AB0EE600AFFF7F1
:1026C000FBFEF0EE409A9DED031AF0EE410A9DEDFF
:1026D000021AB0EE410AFFF7FBFEB0EE40AA07E097
:1026E0009FED340AF0EE409A9FED320AB0EE40AA18
:1026F00095ED000AB5EEC00AF1EE10FA0DD195ED98
:10270000010AB5EEC00AF1EE10FA06D195ED020A03
:10271000B5EEC00AF1EE10FA3CD0B0EE690A00F056
:102720006FF8B0EE408AB0EE690AFFF7E1FEB0EE56
:1027300040DAB0EE4A0A00F063F8F0EE40AAB0EEDC
:102740004A0AFFF7D5FEB0EE40BA28EE2A0AD5EDC8
:10275000010A20EE200AD5ED000A0DEE200A68EEEF
:102760000B0A95ED021A00EE810AB0EE40CA95ED13
:10277000010A20EE0B0AD5ED020A0AEEE00AF0EE9D
:1027800040CAF0EE6C0AB0EE4C0AFFF7A1FEF0EE84
:1027900040BA03E09FED070AF0EE40BAB0EE4A1AE5
:1027A000F0EE690AB0EE6B0A30460EF0C9FE00BFCB
:1027B000E4E6000000000000A4040020A8040020BB
:1027C00035FA8E3CC1BFAD3B9DF8C5362F7C1C4110
:1027D000AC040020506CC24AB004002010B52DEDAE
:1027E000028BB0EE408AB0EE480A0EF03DF8B7EE2C
:1027F000001AC1EE000AB0EE600ABDEC028B10BDFB
:1028000010B52DED028BB0EE408AB0EE480AFDF710
:1028100041FEBDEC028B10BD2DE9F0412DED028B88
:102820009AB00546B0EE408A0E46174698460020FC
:102830001790189019901490159016904DB146B1BC
:102840003FB1B8F1000F04D0B5EEC08AF1EE10FA36
:1028500005D100201AB0BDEC028BBDE8F08196EDE9
:10286000000A8DED170A96ED010A8DED180A96ED16
:10287000020A8DED190A97ED000A8DED140A97ED05
:10288000010A8DED150A97ED020A8DED160A17AAB9
:1028900014A928460EF088FC402104A8FDF7D4FFB7
:1028A00000200090019002900390002417A904A832
:1028B00015F0F6F800BF30E004A800EB041090ED2E
:1028C000000AD5ED000A20EE200A04A800EB04104F
:1028D000D0ED010A95ED011A00EE810A04A800EB83
:1028E0000410D0ED020A95ED021A00EE810A04A848
:1028F00000EB0410D0ED030A95ED031A00EE810AF7
:1029000020EE080AF0EE000A80EE201A684600EB7E
:10291000840080ED001A601CC4B2042CCCDB0024BF
:1029200010E005EB840090ED000A684600EB84009F
:10293000D0ED000A30EE200A05EB840080ED000A9D
:10294000601CC4B2042CECDB284614F0B5F801205E
:1029500080E7000010B501221021024802F0FAFCC5
:1029600010BD00000000024010B5002210210248F6
:1029700002F0F0FC10BD00000000024070470000B3
:1029800010B501221146024802F0E4FC10BD00001F
:102990000004024010B500220121024802F0DAFCD6
:1029A00010BD00000004024010B543781B021BB2AA
:1029B0000478234300EE103AB8EEC01A1C4BD3ED56
:1029C000001A21EE211A81ED001AC3781B021BB2F6
:1029D0008478234300EE103AB8EEC01A144BD3EDBE
:1029E000001A21EE211A81ED011A43791B021BB254
:1029F0000479234300EE103AB8EEC01A0C4BD3ED25
:102A0000001A21EE211A81ED021A037A1B04C479FF
:102A100043EA04238479234300EE903AB8EE601A27
:102A2000DFED041A21EE211A82ED001A10BD00001C
:102A3000E002002000401C42704710B504462046CA
:102A400013F0DAF910BD10B50446204610F016FF59
:102A500010BD00004278120212B203781A4300EE51
:102A6000102AF8EEC00A144A92ED001A60EE810AAC
:102A7000C1ED000AC278120212B283781A4300EE46
:102A8000102AF8EEC00A0C4A92ED001A60EE810A94
:102A9000C1ED010A4279120212B203791A4300EE23
:102AA000102AF8EEC00A044A92ED001A60EE810A7C
:102AB000C1ED020A70470000E402002010B50024B6
:102AC000FFF75CFFFFF7B8FF0EF0ACFE10B144F06B
:102AD000800402E00EF00CFE04430FF09BF810B1EE
:102AE00044F0400402E00FF01BF80443204610BD00
:102AF0002DE9FC4105460E46174600200090019046
:102B0000FFF732FF922000F0D1F80622694612202A
:102B100000F0ACF8FFF71EFF9DF80100000200B2C4
:102B20009DF8001040EA010400EE104AB8EEC00A19
:102B30004C48D0ED000A20EE200A86ED000A9DF8F0
:102B40000300000200B29DF8021040EA010400EE0A
:102B5000104AB8EEC00A4348D0ED000A20EE200A21
:102B600086ED010A9DF80500000200B29DF80410F0
:102B700040EA010400EE104AB8EEC00A3948D0ED30
:102B8000000A20EE200A86ED020AFFF703FF082262
:102B90006946002000F06AF8FFF7F2FE9DF8000099
:102BA0000F2838D19DF80300000200B29DF80210F2
:102BB00040EA010400EE104AB8EEC00A2A48D0EDFF
:102BC000000A20EE200A85ED000A9DF805000002AB
:102BD00000B29DF8041040EA010400EE104AB8EE7D
:102BE000C00A2148D0ED000A20EE200A85ED010A36
:102BF0009DF80700000200B29DF8061040EA0104AB
:102C000000EE104AB8EEC00A1748D0ED000A20EED8
:102C1000200A85ED020AFFF7A7FEA22000F046F881
:102C200002226946222000F021F8FFF793FE9DF86A
:102C30000000C0009DF8011040EA6114B4F5806FF7
:102C400002DBA4F5006004B200EE104AF8EEC00A00
:102C5000B4EE001AB3EE070A00EE810A87ED000A0F
:102C6000BDE8FC81E0020020E402002070B50646C9
:102C70000C46154646F0800000F018F806E0552096
:102C800000F014F82070641C681EC5B2002DF6D147
:102C900070BD70B504460D4644F0800000F006F8A3
:102CA000552000F003F8287070BD000001B582B017
:102CB0004FF47A70012301AA02A90090024804F09F
:102CC0001DFD9DF804000EBDC80D002010B5024684
:102CD0001378DB00547843EA6410B0F5806F02DBB0
:102CE000A0F5006318B200EE100AF8EEC00AB4EEC8
:102CF000001AB3EE070A00EE810A81ED000A10BD4A
:102D000070B505460C462846FFF7D0FF2046FFF772
:102D1000CDFF70BD00BFFEE710B5024801F0D1FB4A
:102D200010BD0000EC0B002010B5024801F0C9FBFB
:102D300010BD0000140C0020F8B507460C461546DF
:102D40001E464FF400700D49086000208860C8607E
:102D500008200861380A0A4908704F70200A8870F4
:102D6000CC70280A08714D71300A8871CE716B469B
:102D70000A460249034801F0A8F9F8BD842D002055
:102D800020010020140C002008B54FF4E0600C492D
:102D9000086000208860C860082008610020094998
:102DA000087048708870C870087148718871C8715F
:102DB0006B460A460249044801F087F908BD000045
:102DC000842D002020010020140C0020F8B50746B7
:102DD0000C4615461E4640F2FF100D4908600020C3
:102DE0008860C86008200861380A0A4908704F7076
:102DF000200A8870CC70280A08714D71300A8871D9
:102E0000CE716B460A460249034801F05EF9F8BDEF
:102E10006C2D002018010020EC0B00200346042B31
:102E200015D007DC7BB1012B0ED0022B0DD0032B6C
:102E300012D10BE0202B0BD0212B0AD0222B09D052
:102E4000232B09D107E008E007E006E005E004E0F5
:102E500003E002E001E000E000BF00BF0020704797
:102E60000020704710B50022044905480BF0C1FA54
:102E7000044903480BF0B6FA002010BDFC230020E3
:102E800058130020FC1B002070B504460D46214657
:102E900003480BF0A7FA02480BF080FA002070BD3F
:102EA000581300202DE9F04104460D4600260A483B
:102EB000D0F89072D7F8140210B10120BDE8F0816B
:102EC0002A46214604480BF094FA03480BF015FB00
:102ED00006463046F2E70000581300201B484068C1
:102EE00000F0006080B31A48406B006819498842BE
:102EF00005D94FF0006017494C3908601CE01448B0
:102F0000406B00681149B831884205D94FF0006024
:102F10001049503908600FE00D48406B00680B49BC
:102F20005831884204D94FF000600849C86003E076
:102F30004FF000600549886005480068006840F46B
:102F40000070034909680860704700000060024093
:102F5000900C00205864024010B5024801F018FEA1
:102F600010BD00009812002010B5FE48C06C00682B
:102F7000FD49884276D9FC4854380068F949C96C43
:102F80000968FA4A914201D1202169E0F549C96CEA
:102F90000968F54A483A914201D1202160E0F1499F
:102FA000C96C0968F14A6032914201D1202157E091
:102FB000EC49C96C0968EC4A1832914201D12021D0
:102FC0004EE0E849C96C0968E84A1832914201D1DB
:102FD000C91445E0E349C96C0968E34A303A9142B3
:102FE00001D1C9143CE0DF49C96C0968DF4A783275
:102FF000914201D1C91433E0DA49C96C0968DA4A4F
:103000003032914201D1C9142AE0D649C96C09680D
:10301000D64A3032914202D14FF4001120E0D1491A
:10302000C96C0968D04A183A914202D14FF4001194
:1030300016E0CC49C96C0968CC4A9032914202D161
:103040004FF400110CE0C749C96C0968C64A483200
:10305000914203D14FF4001102E003E04FF0006110
:10306000084070E1BF48C06C0068C049A831884280
:1030700076D9BD4858380068BA49C96C0968BB4A56
:10308000914201D1202169E0B649C96C0968B64A6C
:10309000483A914201D1202160E0B249C96C0968E7
:1030A000B24A6032914201D1202157E0AD49C96C4A
:1030B0000968AD4A1832914201D120214EE0A94958
:1030C000C96C0968A94A1832914201D1C91445E076
:1030D000A449C96C0968A44A303A914201D1C91483
:1030E0003CE0A049C96C0968A04A7832914201D1FC
:1030F000C91433E09B49C96C09689B4A303291423C
:1031000001D1C9142AE09749C96C0968974A30323D
:10311000914202D14FF4001120E09249C96C096834
:10312000914A183A914202D14FF4001116E08D49AC
:10313000C96C09688D4A9032914202D14FF4001156
:103140000CE08849C96C0968874A4832914203D12A
:103150004FF4001102E003E04FF000610840F2E09C
:103160008048C06C006881494831884276D97F48E0
:10317000103840687B49C96C09687C4A914201D18A
:10318000202169E07749C96C0968774A483A914239
:1031900001D1202160E07349C96C0968734A60322B
:1031A000914201D1202157E06E49C96C09686E4AED
:1031B0001832914201D120214EE06A49C96C096858
:1031C0006A4A1832914201D1C91445E06549C96C77
:1031D0000968654A303A914201D1C9143CE061491D
:1031E000C96C0968614A7832914201D1C91433E04F
:1031F0005C49C96C09685C4A3032914201D1C914FA
:103200002AE05849C96C0968584A3032914202D1C3
:103210004FF4001120E05349C96C0968524A183A2A
:10322000914202D14FF4001116E04E49C96C096871
:103230004E4A9032914202D14FF400110CE04949BC
:10324000C96C0968484A4832914203D14FF40011D1
:1032500002E003E04FF00061084074E0434810389A
:1032600000684049C96C0968404A914201D1202157
:1032700068E03C49C96C09683B4A483A914201D12F
:1032800020215FE03749C96C0968384A60329142B1
:1032900001D1202156E03349C96C0968324A1832FD
:1032A000914201D120214DE02E49C96C09682F4A75
:1032B0001832914201D1C91444E02A49C96C096805
:1032C000294A303A914201D1C9143BE02549C96CE1
:1032D0000968264A7832914201D1C91432E0214965
:1032E000C96C0968204A3032914201D1C91429E0E1
:1032F0001C49C96C09681D4A3032914202D14FF411
:1033000000111FE01749C96C0968174A183A914221
:1033100002D14FF4001115E01249C96C0968134A33
:103320009032914202D14FF400110BE00D49C96C6B
:1033300009680D4A4832914202D14FF4001101E070
:103340004FF00061084000286FD00648C06C00684C
:10335000054988427BD90348C06C0068034988420C
:1033600008D105E0C80D00205864024010600240FA
:10337000202068E0FE48C06C0068FE49884201D108
:10338000202060E0FA48C06C0068FB49884201D107
:10339000202058E0F648C06C0068F6496031884249
:1033A00001D120204FE0F248C06C0068F249483952
:1033B000884201D1C01446E0ED48C06C0068ED4978
:1033C0001831884201D1C0143DE0E948C06C006862
:1033D000E9491831884201D1C01434E0E448C06C96
:1033E0000068E4497831884201D1C0142BE0E048FC
:1033F000C06C0068E0493039884202D14FF40010B7
:1034000021E0DB48C06C0068DA493031884202D1E3
:103410004FF4001017E0D648C06C0068D649303130
:10342000884204D14FF400100DE0D4E10FE0D04801
:10343000C06C0068CF499031884202D14FF400102F
:1034400001E04FF00060CB49091F08606AE1C848FD
:10345000C06C0068C8494831884274D9C448C06CFF
:103460000068C5496039884201D1202066E0C04823
:10347000C06C0068BF49884201D120205EE0BC4892
:10348000C06C0068BC49884201D1202056E0B84891
:10349000C06C0068B7496031884201D120204DE0FE
:1034A000B348C06C0068B4494839884201D1C0149F
:1034B00044E0AF48C06C0068AE491831884201D181
:1034C000C0143BE0AA48C06C0068AB491831884280
:1034D00001D1C01432E0A648C06C0068A54978311B
:1034E000884201D1C01429E0A148C06C0068A249FB
:1034F0003039884202D14FF400101FE09C48C06C64
:1035000000689C493031884202D14FF4001015E028
:103510009748C06C006898493031884202D14FF416
:1035200000100BE09248C06C0068924990318842CC
:1035300002D14FF4001001E04FF000608D490839CE
:103540000860EFE0FFE78A48C06C00688A491839D4
:10355000884274D98648C06C0068874960398842BF
:1035600001D1202066E08248C06C00688149884211
:1035700001D120205EE07E48C06C00687E49884210
:1035800001D1202056E07A48C06C0068794960314A
:10359000884201D120204DE07548C06C0068764912
:1035A0004839884201D1C01444E07148C06C0068B9
:1035B00070491831884201D1C0143BE06C48C06C9E
:1035C00000686D491831884201D1C01432E0684862
:1035D000C06C006867497831884201D1C01429E085
:1035E0006348C06C006864493039884202D14FF4A6
:1035F00000101FE05E48C06C00685E4930318842B0
:1036000002D14FF4001015E05948C06C00685A49C7
:103610003031884202D14FF400100BE05448C06CA6
:10362000006854499031884202D14FF4001001E003
:103630004FF0006050497039C86073E0FFE74C48B4
:10364000C06C00684C496039884201D1202066E096
:103650004748C06C00684749884201D120205EE09D
:103660004348C06C00684449884201D1202056E09C
:103670003F48C06C00683F496031884201D120203A
:103680004DE03B48C06C00683B494839884201D155
:10369000C01444E03648C06C00683649183188428E
:1036A00001D1C0143BE03248C06C00683249183187
:1036B000884201D1C01432E02D48C06C00682D4909
:1036C0007831884201D1C01429E02948C06C0068D3
:1036D00029493039884202D14FF400101FE02448B4
:1036E000C06C006823493031884202D14FF4001089
:1036F00015E01F48C06C00681F493031884202D174
:103700004FF400100BE01A48C06C00681949903162
:10371000884202D14FF4001001E04FF000601649DA
:10372000703988601548007800F0020078B11348BD
:10373000007820F00200114908700846007840F037
:1037400004000870012211460D4801F003FE0D48E7
:10375000007800F00200E0B10A48007820F0020092
:10376000084908700846007840F0040008700BE033
:10377000C80D0020106402407060024099010020D2
:10378000000402409A01002001221021124801F099
:10379000E1FD1248007800F0020078B10F4800788F
:1037A00020F002000D4908700846007840F004003F
:1037B000087001221021084801F0CCFD11F05AFEDA
:1037C0000748007800F0040028B10648006840F07F
:1037D00001000449086010BD000002409B01002068
:1037E00099010020103C014010B5024801F0D0F9C9
:1037F00010BD0000D811002010B5024801F0C8F932
:1038000010BD0000F812002010B5024801F0C0F908
:1038100010BD0000781100200146087810381823E8
:10382000B0FBF3F20848805CC865032A05D9086834
:103830006FF30900001D886503E008686FF3090055
:103840008865886D7047000004D701080146002094
:103850008A6A8B69CBB932B1012A0DD0022A03D012
:10386000032A10D10EE000BFCB6A03F08073B3F1DE
:10387000807F00D1012007E0CB6AB3F1C07F00D187
:10388000012001E000E000BF34E08B69B3F5005F88
:103890001AD132B1012A07D0022A03D0032A11D14A
:1038A0000AE000BF01200EE0CB6A03F08073B3F1A1
:1038B000807F00D1012006E0CB6AB3F1C07F00D148
:1038C000012000E000BF15E032B1012A05D0022A34
:1038D00004D0032A0CD103E000BF00BF012008E0A0
:1038E000CB6A03F08073B3F1807F00D1012000E048
:1038F00000BF00BF7047704710B5012001F014FCF5
:1039000010BD10B5082001F00FFC10BD10B510203F
:1039100001F00AFC10BD10B5202001F005FC10BD1F
:103920007047000010B5002201B909E0012901D15A
:103930000A0205E0022901D10A0201E04FF44072B7
:103940000E4B1B6823F440730C4C236023461B680A
:103950001343236023461B6823F0F80323602346A8
:103960001B68022444EAC0042343044C236023461A
:103970001B6843F48033236010BD0000103C0240FC
:103980001C48006800F40070B0B11A48006820F4C8
:1039900000701849086000BF0846006840F40060E5
:1039A00008600846006820F40060086000BF084610
:1039B000006840F4007008600E48006800F4806001
:1039C000B0B10C48006820F480600A49086000BF6C
:1039D0000846006840F4805008600846006820F4FB
:1039E0008050086000BF0846006840F480600860AE
:1039F00070470000003C02400A4A126822F44072FC
:103A0000084B1A601A46126842F004021A601A46FD
:103A100012684FF4803343EA00231A43014B1A60C3
:103A200070470000103C0240074A126822F44072BE
:103A3000054B1A601A4612681A601A46126842F05C
:103A400001021A6001707047103C024010B509492C
:103A5000096821F44071074C21602146096841F44E
:103A6000407121602146096841F001012160026036
:103A7000436010BD103C0240084A126822F44072B4
:103A8000064B1A601A46126842F480721A601A468F
:103A9000126842F001021A6001807047103C024037
:103AA000084A126822F44072064B1A601A461268DD
:103AB00042F400721A601A46126842F001021A605B
:103AC00001607047103C02402348006800F010007D
:103AD00040B12248C06940F010002049C861102060
:103AE0001D4908601C48006800F0200040B11B48D8
:103AF000C06940F008001949C861202016490860D3
:103B00001548006800F0400040B11448C06940F01A
:103B100004001249C86140200F4908600E4800683F
:103B200000F0800040B10D48C06940F002000B4930
:103B3000C8618020084908600748006800F002005A
:103B400040B10648C06940F020000449C861022025
:103B500001490860704700000C3C02402C460020E0
:103B600070B50446002500201449C86101F0F8FB37
:103B7000054609E0601C38B124B101F0F1FB401B9F
:103B8000A04201D9032070BD0D48006800F48030C8
:103B90000028EFD10A48006800F0010010B10120B0
:103BA000074908600648006800F0F20018B1FFF706
:103BB0008BFF0120E7E70020E5E700002C4600200E
:103BC0000C3C024070B50A480468001D0568001DE1
:103BD0000668344454B108220649204605F05EFACE
:103BE000042204491031284605F058FA70BD00003F
:103BF000107AFF1F7200002038B5024600200090A6
:103C000000BF92F83C00012801D1022038BD0120FC
:103C100082F83C0000BF0868092816D91068C068FF
:103C20000C780A3C04EB44050724AC40A04314681C
:103C3000E0600C780A3C04EB44048868A0401468F7
:103C4000E46820431468E06013E0106800690C78B1
:103C500004EB44050724AC40A043146820610C78B1
:103C600004EB44048868A040146824692043146865
:103C700020614868072817D21068406B0C79641ED1
:103C800004EB84051F24AC40A043146860630888DB
:103C900080B20C79641E04EB8404A0401468646B49
:103CA00020431468606331E048680D2817D210681B
:103CB000006B0C79E41F04EB84051F24AC40A04387
:103CC00014682063088880B20C79E41F04EB840434
:103CD000A0401468246B20431468206316E0106829
:103CE000C06A0C790D3C04EB84051F24AC40A04352
:103CF0001468E062088880B20C790D3C04EB8404FF
:103D0000A0401468E46A20431468E062194B1A4C1E
:103D10001068A04206D10868122803D1586840F400
:103D200080005860144C1068A0421CD1086810280C
:103D300002D00868112816D1586840F40000586075
:103D4000086810280FD10D4800680D4CB0FBF4F046
:103D500000EB80004000009002E00098401E0090C0
:103D600000980028F9D100BF002082F83C0000BF75
:103D700000BF4BE700230140002001409C000020D1
:103D800040420F0001460868C06C704770B5044699
:103D900000250CB9012070BD1549A06A884200D0E9
:103DA00000BF206C30B9204600F024F80020606489
:103DB00084F83C00206C00F0100088B9206C20F4DE
:103DC000885040F0020020642046FEF7C5FA00202B
:103DD0006064206C20F0020040F00100206400E0EC
:103DE000012500BF002084F83C0000BF2846D2E730
:103DF0000100000F10B586B00446142101A8FCF79D
:103E000023FD2349206888420FD100BF0020009085
:103E10002048006840F480701E4908600846006829
:103E200000F48070009000BF2FE01B49206888429A
:103E30002BD100BF002000901648006840F480603D
:103E4000144908600846006800F48060009000BFD4
:103E500000BF00BF002000900E481438006840F0FA
:103E600020000C49143908600846006800F0200062
:103E7000009000BF00BF08150190032002900020B1
:103E8000039001A9054801F05DF906B010BD0000DE
:103E9000002001404438024000220140001402404A
:103EA00070B504460D4600262068806800F48060E6
:103EB000B0F5806F11D12068806800F48070B0F593
:103EC000807F0AD1206C40F02000206400BF0020D9
:103ED00084F83C0000BF012070BD01F041FA0646A5
:103EE00012E0681C80B125B101F03AFA801BA842AB
:103EF0000AD9206C40F00400206400BF002084F840
:103F00003C0000BF0320E7E72068006800F00200E3
:103F10000228E6D16FF0120021680860206C40F49E
:103F2000007020642068806800F04050B8B9207E9E
:103F3000A8B92068C06A00F4700020B120688068C9
:103F400000F4806058B9206C20F480702064206CEC
:103F500000F4805018B9206C40F00100206400206B
:103F6000BAE7000008B501460020009000BF91F8B4
:103F70003C00012801D1022008BD012081F83C004D
:103F800000BF0868806800F00100A0B90868806878
:103F900040F001000B6898603B4800683B4BB0FB69
:103FA000F3F000EB4000009002E00098401E00900B
:103FB00000980028F9D10868806800F00100002806
:103FC0005FD0086C40F20163984340F4807008644D
:103FD0000868406800F4806028B1086C20F4005044
:103FE00040F480500864086C00F48050B0F5805FA5
:103FF00004D1486C20F00600486401E000204864C9
:1040000000BF002081F83C0000BF214A6FF0220071
:104010000B681860506800F01F0018BB1D4B086843
:10402000984213D01C4B0868984204D1101D0068B8
:1040300000F01F0050B1194B0868984221D1144874
:10404000001D006800F01F0010281AD20868806860
:1040500000F0405028B90868806840F080400B6844
:1040600098600EE00B4B086898420AD10868806897
:1040700000F0405028B90868806840F080400B6824
:104080009860002078E700009C00002040420F006C
:104090000023014000200140002101400022014096
:1040A00010B5024692F82030012B01D0022B06D128
:1040B00010684069084314686061002010BD506AB0
:1040C00040F4802050620120F8E7F0B504460D4628
:1040D0001E4694F8207020688368A86800B900E044
:1040E00000BF012F01D0022F7CD103F0806030B9D6
:1040F00003F0006018B903F08050002873D0C3F3B8
:104100000161022905D9606A40F400006062012063
:10411000F0BD012088403060A86860B9B5F800C0E3
:10412000E86840EA4C5C206800F5C07000EB0110C4
:10413000C0F800C00FE0D5E901C040EACC00D5F8D6
:104140000CC040EA0C00D4F800C00CF5C07C0CEBAD
:10415000011CCCF80000D5F810C0206800F5C07034
:1041600000EB0110C0F804C0287D01280ED12068A2
:1041700000F5C07000EB0110406840F4807C2068BE
:1041800000F5C07000EB0110C0F804C0D079000643
:1041900092F806C040EA0C4092F805C040EA0C2CA8
:1041A00010794CEA000C206800F5C07000EB01109B
:1041B000C0F80CC0D078000692F802C040EA0C406B
:1041C00092F801C040EA0C2092F800C040EA0C00CE
:1041D000D4F800C00CF5C07C0CEB011CCCF8080036
:1041E000206801E016E00FE000F5C07000EB011060
:1041F000006840F0010C206800F5C07000EB011071
:10420000C0F800C0002083E7606A40F400106062DC
:1042100001207DE7606A40F480206062012077E73A
:10422000F0B504460A46216894F82050012D01D0CB
:10423000022D7ED1424901F50071086840F001006D
:104240000860086820F47C5008600868566A40EAF4
:1042500006200860107D00F01F06012000FA06F31A
:10426000C8699843C861A1F50071D069C8B9D1F88F
:104270000C029843C1F80C02908880B2968940EAFB
:10428000064601F51070576940F83760108880B213
:10429000168940EA064601F51070576900EBC70021
:1042A0004660D069012819D1D1F80C021843C1F831
:1042B0000C02908880B2168840EA064601F510701C
:1042C000576940F83760908980B2168940EA0646FF
:1042D00001F51070576900EBC7004660906928B976
:1042E000D1F804029843C1F8040204E0D1F80402B2
:1042F0001843C1F80402106928B9D1F81402984390
:10430000C1F8140204E0D1F814021843C1F81402F1
:10431000106A012804D1D1F81C021843C1F81C020C
:10432000D1F8000220F00100C1F800020020F0BD29
:10433000FFE7606A40F4802060620120F7E7000038
:1043400000640040704770B5044694F82050012D79
:1043500001D0022D7CD151B92068C06800F0030063
:1043600080B9606A40F400106062012070BD20686E
:10437000006900F0030028B9606A40F40010606230
:104380000120F3E7206800F5D87000EB0110006809
:1043900000F004009060906840B9206800F5D87083
:1043A00000EB01100068400D106007E0206800F588
:1043B000D87000EB01100068C0085060206800F55C
:1043C000D87000EB0110006800F002004008D060D7
:1043D000206800F5D87000EB0110406800F00F0075
:1043E0001061206800F5D87000EB0110406800F4FF
:1043F0007F40000A9061206800F5D87000EB011042
:104400004068000C5061206800F5D87000EB011086
:1044100080681870206800F5D87000EB0110806883
:1044200000F47F40000A5870206800F5D87000EB57
:104430000110806800F47F00000C9870206800F57F
:10444000D87000EB01108068000ED870206800E082
:1044500031E000F5D87000EB0110C06818712068D9
:1044600000F5D87000EB0110C06800F47F40000A2E
:104470005871206800F5D87000EB0110C06800F496
:104480007F00000C9871206800F5D87000EB0110D7
:10449000C068000ED87131B92068C06840F02000B3
:1044A0002668F06005E02068006940F0200026687A
:1044B000306100205AE7606A40F480206062012089
:1044C00054E72DE9F05F044600252068466920681E
:1044D000D0F80490206887682068D0F80CA0206885
:1044E000D0F810B02068D0F8188006F0010000283D
:1044F00055D007F00100C0B101202168886007F0A5
:10450000020018B1204600F010FB0EE007F0040096
:1045100010B145F4006508E007F0080010B145F45B
:10452000805502E0204600F0FFFA07F48070C8B121
:104530004FF480702168886007F4007018B120463D
:1045400000F0F5FA0EE007F4806010B145F4005574
:1045500008E007F4006010B145F4804502E0204611
:1045600000F0E4FA07F48030C8B14FF480302168DD
:10457000886007F4003018B1204600F0DAFA0EE047
:1045800007F4802010B145F4004508E007F400204E
:1045900010B145F4803502E0204600F0C9FA06F07B
:1045A000080038B10AF0100020B145F40075102061
:1045B0002168C86006F0040040B10AF0080028B184
:1045C00008202168C860204600F00CFA06F00200BE
:1045D00038B12068C06800F0030010B1204600F038
:1045E00003FA06F0400038B10BF0100020B145F49A
:1045F000806510202168086106F0200040B10BF0B2
:10460000080028B1082021680861204600F05AFA05
:1046100006F0100038B12068006900F0030010B106
:10462000204600F050FA06F4003040B109F01000C6
:1046300028B1102021684860204600F045FA06F4B1
:10464000803040B109F0080028B108202168486096
:10465000204600F06FFA06F4004088B309F0040029
:1046600078B306F4807020B108F0010008B145F07D
:10467000010506F4007020B108F0020008B145F011
:10468000020506F4806020B108F0040008B145F08E
:10469000040506F40060A0B108F0700088B108F0CD
:1046A0007000402817D006DC10280BD020280CD032
:1046B000302819D10CE0502810D0602814D110E017
:1046C0001DE019E045F008050FE045F010050CE08D
:1046D00045F0200509E045F0400506E045F080057D
:1046E00003E045F4807500E000BF00BF20688069EA
:1046F00020F07000216888610420216848602DB195
:10470000606A284360622046FFF71CFEBDE8F09F08
:1047100070B504460CB9012070BD94F8200010B9A2
:10472000204600F0AFF82068006820F00200216801
:10473000086000F015FE05460DE000F011FE401B7C
:104740000A2808D9606A40F400306062052084F8C5
:1047500020000120E0E72068406800F00200002807
:10476000EBD12068006840F001002168086000F08B
:10477000F7FD05460DE000F0F3FD401B0A2808D9BF
:10478000606A40F400306062052084F82000012057
:10479000C2E72068406800F001000028EBD0207ECE
:1047A000012806D12068006840F080002168086078
:1047B00005E02068006820F0800021680860607EC5
:1047C000012806D12068006840F040002168086098
:1047D00005E02068006820F0400021680860A07EA5
:1047E000012806D12068006840F020002168086098
:1047F00005E02068006820F0200021680860E07E65
:10480000012806D12068006820F0100021680860A7
:1048100005E02068006840F0100021680860207FF3
:10482000012806D12068006840F00800216808606F
:1048300005E02068006820F0080021680860607FBB
:10484000012806D12068006840F004002168086053
:1048500005E02068006820F0040021680860D4E9C1
:104860000201084321690843616908436168491EE0
:1048700008432168C86100206062012084F820009C
:10488000002049E710B586B00446142101A8FBF7C3
:10489000DBFF4E492068884241D14D480068401CEA
:1048A0004B4908600846006801280FD100BF00206E
:1048B00000904848006840F000704649086008468B
:1048C000006800F00070009000BF00BF00BF002033
:1048D000009040481038006840F008003D49103909
:1048E00008600846006800F00800009000BF00BFA4
:1048F00003200190022002900020039003200490E6
:104900000920059001A9344800F01CFC0022062172
:10491000142001F079FA142001F066FA54E02F49CE
:104920002068884250D100BF0020009029480068CC
:1049300040F08060274908600846006800F0806009
:10494000009000BF00BF22480068401C204908605A
:104950000846006801280FD100BF002000901D48C4
:10496000006840F000701B4908600846006800F0CD
:104970000070009000BF00BF00BF002000901548ED
:104980001038006840F002001249103908600846EB
:10499000006800F00200009000BF00BF602001909E
:1049A000022002900020039003200490092005902B
:1049B00001A90B4800F0C6FB00220621402001F0AF
:1049C00023FA402001F010FA06B010BD0064004048
:1049D0003000002040380240000C024000680040D7
:1049E000000402407047000010B58AB0044601ABD5
:1049F00003AA00212046FFF7A6FC0398A0F201209D
:104A0000072857D2DFE800F00405060708090A0066
:104A100000BF00BF00BF00BF00BF00BF0398401E23
:104A2000264908700846007800EB8000244931F8D8
:104A3000100000B22149097801EB8101204A02EB04
:104A4000410108819DF805009DF8041040EA01200D
:104A50001A49097801EB810122F811009DF807003D
:104A60009DF8061040EA012000B21449097801EBD4
:104A7000810102EB410148809DF809009DF8081072
:104A800040EA012000B20D49097801EB810102EBF7
:104A9000410188809DF80A000849097801EB8101ED
:104AA00002EB4101887105490978491CC8B20EF032
:104AB0000DFF00E000BF00BF0AB010BD28010020BC
:104AC000242D002070477047704770B5044694F855
:104AD0002000012822D1022084F8200020680068EC
:104AE00020F001002168086000F03AFC05460DE066
:104AF00000F036FC401B0A2808D9606A40F40030F8
:104B00006062052084F82000012070BD20684068A4
:104B100000F001000028EBD16062F6E7606A40F423
:104B2000002060620120F0E77047704770477047CF
:104B300070477047704710B504460CB9012010BD8E
:104B4000607920B900202071204600F007F802208B
:104B50006071012060710020F1E7000008B50A4A89
:104B6000016891420FD100BF0021009107490968F7
:104B700041F48051054A11601146096801F48051E1
:104B8000009100BF00BF08BD003002403038024035
:104B9000F8B50446002000908C4800684FF4165188
:104BA000B0FBF1F7A56D2E6894F85C1008208840E2
:104BB000304098B12068006800F0040070B12068AF
:104BC000006820F004002168086094F85C10082058
:104BD0008840A860606D40F00100606594F85C104A
:104BE00001208840304068B12068406900F08000B2
:104BF00040B194F85C1001208840A860606D40F0DE
:104C00000200606594F85C1004208840304068B170
:104C10002068006800F0020040B194F85C100420A5
:104C20008840A860606D40F00400606594F85C10F6
:104C300010208840304078B32068006800F00800F9
:104C400050B394F85C1010208840A8602068006879
:104C500000F4802080B12068006800F4002028B9AA
:104C6000206CC8B12046216C884715E0A06C98B133
:104C70002046A16C88470FE02068006800F480702F
:104C800028B92068006820F0080021680860206CBE
:104C900010B12046216C884794F85C102020884091
:104CA0003040002865D02068006800F0100000281F
:104CB0005FD094F85C1020208840A86094F83500FC
:104CC000052828D12068006820F0160021680860B7
:104CD0002068406920F0800021684861206C08B994
:104CE000A06C28B12068006820F0080021680860E6
:104CF00094F85C103F208840A86000BF002084F832
:104D0000340000BF012084F83500206D10B120462A
:104D1000216D8847F8BD2068006800F4802080B1CC
:104D20002068006800F4002028B9606C10B12046AB
:104D3000616C88471DE0E06BD8B12046E16B884785
:104D400017E02068006800F4807068B92068006887
:104D500020F010002168086000BF002084F83400B3
:104D600000BF012084F83500E06B10B12046E16BF4
:104D70008847606D38B3606D00F00100F0B1052028
:104D800084F835002068006820F001002168086080
:104D900000BF0098401C0090B84200D905E0206890
:104DA000006800F001000028F3D100BF00BF002020
:104DB00084F8340000BF012084F83500E06C10B1A5
:104DC0002046E16C884700BFA4E700009C0000205B
:104DD0002DE9F0410446002500F0C2FA074614B957
:104DE0000120BDE8F081606A00B100BF00BF002073
:104DF00084F8340000BF022084F835002068006881
:104E000020F00100216808600AE000F0A9FAC01B48
:104E1000052805D920206065032084F83500E0E7E7
:104E20002068006800F001000028EED120680568C5
:104E300021480540D4E901010843E168084321699C
:104E4000084361690843A1690843E1690843216A8D
:104E500008430543606A042803D1D4E90B010843E1
:104E60000543206805602068456925F00705606AEC
:104E70000543606A04280DD1A06A0543E06A48B181
:104E80002046FEF7E3FC28B140206065012084F84D
:104E90003500A6E7206845612046FEF7BDFC0646C2
:104EA00094F85C103F208840B060002060650120CD
:104EB00084F83500002094E73F8010F070B5044678
:104EC00000F04EFA06462546681C10B104480078EA
:104ED000054400BF00F044FA801BA842FAD370BD1D
:104EE000180300202DE9F04104460E460127002555
:104EF00000BF2548007E012802D10220BDE8F081D4
:104F000001202149087600BF4CF25030FEF728FE00
:104F10000746002F31D1401E3060206801280FD194
:104F2000207C6168FEF768FD4CF25030FEF718FEF9
:104F300007461648006820F00400144908601AE08B
:104F4000A56812E0217C2846FEF7ECFC4CF25030BC
:104F5000FEF706FE07460D48006820F0FA000B49F0
:104F600008600FB1356005E06D1CD4E902100844FB
:104F7000A842E7D800BFFEF703FD00BF00200249AA
:104F8000087600BF3846B9E72C460020103C0240A6
:104F90000348006840F00040014908600020704765
:104FA000103C02402DE9F04106460F4614461D46CE
:104FB0004FF0010800BF1F48007E012802D10220E7
:104FC000BDE8F08101201B49087600BF4CF250304B
:104FD000FEF7C6FD8046B8F1000F23D126B9E1B235
:104FE0003846FEF721FD12E0012E04D1A1B2384669
:104FF000FEF742FD0BE0022E04D121463846FEF7B3
:105000004FFD04E022462B463846FEF71FFD4CF2CA
:105010005030FEF7A5FD80460748006820F00100EB
:105020000549086000BF00200249087600BF4046DD
:10503000C6E700002C460020103C02400020094931
:10504000096801F0004159B10749064A0C3A11605C
:10505000064911600349096801F0004101B10120CE
:1050600070470000103C024023016745AB89EFCD3B
:1050700010B50446102C14D109200EF027FC22484C
:10508000007840F00100204908702048007840F086
:1050900001001E4908701E480078A0B310F0EAF91C
:1050A00031E0202C0ED108200EF010FC19480078B9
:1050B00040F00100174908701548007818B310F047
:1050C000D9F920E0082C09D10A200EF0FFFB124884
:1050D000007840F001001049087014E0012C12D152
:1050E00014F062F801280ED00C490D48006813F046
:1050F00067F90A48006830B120070A490860BFF321
:105100004F8FBFF36F8F10BD9A0100209B010020CD
:105110009D010020990100209C0100201002002028
:105120007401002004ED00E010B504460448006856
:10513000204020B1024804602046FFF799FF10BDCF
:10514000143C0140F8B502460B460025002400201F
:105150000021DCE0012606FA01F51E6806EA0504D6
:10516000AC4273D15E68022E02D05E68122E13D15B
:10517000CF0802F1200656F827004E07F70E0F263B
:10518000BE40B0434F07FF0E1E69BE403043CF08FC
:1051900002F1200646F8270010684F000326BE40A3
:1051A000B0431E7906F003064F00BE403043106046
:1051B0005E68012E08D05E68022E05D05E68112E52
:1051C00002D05E68122E13D190684F000326BE40B5
:1051D000B0434F00DE68BE40304390605068012607
:1051E0008E40B0431E79C6F300168E4030435060A7
:1051F000D0684F000326BE40B0434F009E68BE40BB
:105200003043D0605E6806F08056B6F1805F7DD195
:1052100000BF00260096404E366846F480463E4F5A
:105220003E603E46366806F48046009600BF00BFEA
:105230003A4E8F0856F827008E07370F0F26BE40CC
:10524000B043374EB24202D1002624E05EE0354E34
:10525000B24201D101261EE0334EB24201D10226F4
:1052600019E0324EB24201D1032614E0304EB24270
:1052700001D104260FE02F4EB24201D105260AE0EB
:105280002D4EB24201D1062605E02C4EB24201D18C
:10529000072600E008268F073F0FBE4030431F4E11
:1052A0008F0846F82700264E3068A0435E6806F453
:1052B0008036B6F5803F00D12043214E3060361D48
:1052C0003068A0435E6806F40036B6F5003F00D1B2
:1052D00020431B4E361D3060361D3068A0435E688B
:1052E00006F48016B6F5801F00D12043144E083610
:1052F0003060361D3068A0435E6806F40016B6F5CF
:10530000001F00D120430E4E0C363060491C10297E
:10531000FFF420AFF8BD00004438024008380140D7
:10532000000002400004024000080240000C02405D
:10533000001002400014024000180240001C02400D
:10534000003C0140024613690B400BB1012000E014
:10535000002070470AB1816101E00B04836170474E
:1053600001480068704700001003002070B5044633
:105370000CB9012070BD94F83D0028B9002084F8D4
:105380003C00204600F0B2FB242084F83D00206859
:10539000006820F001002168086001F01DFD05464D
:1053A0005C496068884206D85B48854201D201208A
:1053B00007E0002005E05948854201D2012000E0C5
:1053C0000020012800D1D5E75548B5FBF0F620684C
:1053D000406820F03F003043216848604D496068D4
:1053E000884201D8701C07E04FF4967070434FF468
:1053F0007A71B0FBF1F0401C2168096A21F03F018D
:1054000008432168086243496068884214D8681ECE
:1054100061684900B0FBF1F0401CC0F30B000428A8
:1054200001D204203DE0681E61684900B0FBF1F044
:10543000401CC0F30B0034E0A06838B9681E6168F6
:1054400001EB4101B0FBF1F0401C0AE0681E61680D
:1054500001EBC10202EB0111B0FBF1F0401C40F482
:105460008040C0F30B0008B901201AE0A06848B9D9
:10547000681E616801EB4101B0FBF1F0401CC0F314
:105480000B000CE0681E616801EBC10202EB011128
:10549000B0FBF1F0401CC0F30B0040F4804040F43E
:1054A00000402168C9694CF6FF72914308432168A6
:1054B000C861D4E9070108432168096821F0C001E7
:1054C000084321680860D4E903100843216889680B
:1054D00048F2FF329143084321688860D4E905010E
:1054E00008432168C96821F0FF0108432168C860AA
:1054F0002068006840F001002168086000202064F6
:10550000202084F83D000020206384F83E0000BF86
:1055100030E70000A086010080841E0000093D00E5
:1055200040420F002DE9F8430446894616461F46BF
:10553000DDF82080FFF714FF054694F83D00202891
:105540007ED11923012251492046009503F0AEFA7D
:1055500010B10220BDE8F88300BF94F83C00012898
:1055600001D10220F6E7012084F83C0000BF20684A
:10557000006800F0010028B92068006840F00100D0
:10558000216808602068006820F4006021680860D5
:10559000212084F83D00102084F83E000020206483
:1055A00066626785608D20853948E0622B464246F9
:1055B0004946204603F076F808B10120CAE700BF4B
:1055C0000020009020684069009020688069009069
:1055D00000BF00BF44E02A464146204603F04BFB93
:1055E00050B1206C042805D12068006840F4007098
:1055F000216808600120ADE7606A007821680861D1
:10560000606A401C6062608D401E6085208D401E77
:10561000208520684069C0F3800070B1208D60B1A2
:10562000606A007821680861606A401C6062608D71
:10563000401E6085208D401E20852A46414600E0A0
:1056400022E0204603F004FA50B1206C042805D172
:105650002068006840F4007021680860012079E744
:10566000208D0028B7D12068006840F400702168C0
:105670000860202084F83D00002084F83E0000BF30
:1056800084F83C0000BF65E7022063E702001000D9
:105690000000FFFF2DE9FC5F04460F469046994647
:1056A000DDE90CAB0E9EFFF75BFE054694F83D006E
:1056B000202870D119230122B0492046009503F01B
:1056C000F5F910B10220BDE8FC9F00BF94F83C0042
:1056D000012801D10220F6E7012084F83C0000BF38
:1056E0002068006800F0010028B92068006840F0D8
:1056F0000100216808602068006820F400602168CB
:105700000860222084F83D00402084F83E000020FC
:105710002064C4F824A0A4F82AB0608D208598489D
:10572000E0624B46424639462046CDE9006503F02B
:105730000FF808B10120C6E7208D88B900BF00200E
:10574000019020684069019020688069019000BF45
:1057500000BF2068006840F400702168086040E0E5
:10576000208D012818D12068006820F4806021680D
:10577000086000BF00200190206840690190206807
:105780008069019000BF00BF2068006840F400708D
:105790002168086025E0EFE0208D022816D12068FE
:1057A000006820F48060216808602068006840F488
:1057B00000602168086000BF0020019020684069F7
:1057C000019020688069019000BF0AE000BF0020BE
:1057D000019020684069019020688069019000BFB5
:1057E00000BFBAE0208D03287ED8208D012815D176
:1057F0002A463146204603F0FEF908B1012062E74F
:1058000020680069616A0870606A401C6062208DCF
:10581000401E2085608D401E60859EE0208D022800
:105820002AD13346002257492046009503F03EF91D
:1058300008B1012047E72068006840F40070216843
:10584000086020680069616A0870606A401C6062D4
:10585000208D401E2085608D401E60852068006977
:10586000616A0870606A401C6062208D401E20855D
:10587000608D401E608570E033460022414920461D
:10588000009503F013F908B101201CE720680068B7
:1058900020F480602168086020680069616A0870EF
:1058A000606A401C6062208D401E2085608D401E15
:1058B00060853346002233492046009503F0F6F810
:1058C00008B10120FFE62068006840F400702168FC
:1058D000086020680069616A0870606A401C606244
:1058E000208D401E208500E010E0608D401E608508
:1058F00020680069616A0870606A401C6062208DDF
:10590000401E2085608D401E608526E02A46314677
:10591000204603F070F908B10120D4E62068006940
:10592000616A0870606A401C6062208D401E20859C
:10593000608D401E608520684069C0F3800060B1C2
:1059400020680069616A0870606A401C6062208D8E
:10595000401E2085608D401E6085208D00287FF4CC
:1059600041AF202084F83D00002084F83E0000BFB5
:1059700084F83C0000BFA6E60220A4E60200100066
:105980000000FFFF040001002DE9FC5F04460F4604
:1059900090469946DDE90CAB0E9EFFF7E1FC05460B
:1059A00094F83D0020287DD1192301224D4920463D
:1059B000009503F07BF810B10220BDE8FC9F00BF0A
:1059C00094F83C00012801D10220F6E7012084F878
:1059D0003C0000BF2068006800F0010028B9206882
:1059E000006840F00100216808602068006820F429
:1059F000006021680860212084F83D00402084F880
:105A00003E0000202064C4F824A0A4F82AB0608DD1
:105A100020853548E0624B46424639462046CDE96E
:105A2000006502F031FF08B10120C6E731E02A46E7
:105A30003146204603F01FF950B1206C042805D1EF
:105A40002068006840F40070216808600120B4E715
:105A5000606A007821680861606A401C6062208D7D
:105A6000401E2085608D401E608520684069C0F31F
:105A7000800070B1208D60B1606A00782168086193
:105A8000606A401C6062208D401E2085608D401E33
:105A90006085208D0028CAD12A463146204602F072
:105AA000D7FF00E01CE050B1206C042805D120682D
:105AB000006840F400702168086001207DE72068DC
:105AC000006840F4007021680860202084F83D00E0
:105AD000002084F83E0000BF84F83C0000BF6CE763
